{
  "contractName": "Bet",
  "abi": [
    {
      "inputs": [],
      "stateMutability": "nonpayable",
      "type": "constructor"
    },
    {
      "inputs": [
        {
          "internalType": "uint256",
          "name": "t",
          "type": "uint256"
        }
      ],
      "name": "placeBet",
      "outputs": [],
      "stateMutability": "payable",
      "type": "function",
      "payable": true
    },
    {
      "inputs": [],
      "name": "myBets",
      "outputs": [
        {
          "internalType": "uint8",
          "name": "",
          "type": "uint8"
        }
      ],
      "stateMutability": "view",
      "type": "function",
      "constant": true
    },
    {
      "inputs": [],
      "name": "distribute",
      "outputs": [],
      "stateMutability": "nonpayable",
      "type": "function"
    },
    {
      "inputs": [
        {
          "internalType": "uint256",
          "name": "g",
          "type": "uint256"
        }
      ],
      "name": "winningBet",
      "outputs": [],
      "stateMutability": "nonpayable",
      "type": "function"
    }
  ],
  "bytecode": "0x6080604052600260075534801561001557600080fd5b5033600360006101000a81548173ffffffffffffffffffffffffffffffffffffffff021916908373ffffffffffffffffffffffffffffffffffffffff160217905550610c3c806100666000396000f3fe60806040526004361061003f5760003560e01c806310fe7c4814610044578063216de3251461006057806358c1eb541461008b578063e4fc6b6d146100b4575b600080fd5b61005e6004803603810190610059919061077b565b6100cb565b005b34801561006c57600080fd5b506100756102f6565b60405161008291906107c4565b60405180910390f35b34801561009757600080fd5b506100b260048036038101906100ad919061077b565b61038b565b005b3480156100c057600080fd5b506100c9610486565b005b806007548110610110576040517f08c379a00000000000000000000000000000000000000000000000000000000081526004016101079061083c565b60405180910390fd5b600560009054906101000a900460ff1615610160576040517f08c379a0000000000000000000000000000000000000000000000000000000008152600401610157906108a8565b60405180910390fd5b60008060003373ffffffffffffffffffffffffffffffffffffffff1673ffffffffffffffffffffffffffffffffffffffff168152602001908152602001600020600084815260200190815260200160002054146101f2576040517f08c379a00000000000000000000000000000000000000000000000000000000081526004016101e990610914565b60405180910390fd5b6000349050806000803373ffffffffffffffffffffffffffffffffffffffff1673ffffffffffffffffffffffffffffffffffffffff1681526020019081526020016000206000858152602001908152602001600020819055506002339080600181540180825580915050600190039060005260206000200160009091909190916101000a81548173ffffffffffffffffffffffffffffffffffffffff021916908373ffffffffffffffffffffffffffffffffffffffff16021790555080600660008282546102c09190610963565b92505081905550806001600085815260200190815260200160002060008282546102ea9190610963565b92505081905550505050565b600080600090505b6007548160ff1610156103815760008060003373ffffffffffffffffffffffffffffffffffffffff1673ffffffffffffffffffffffffffffffffffffffff16815260200190815260200160002060008360ff168152602001908152602001600020541461036e5780915050610388565b8080610379906109b9565b9150506102fe565b5060075490505b90565b8060075481106103d0576040517f08c379a00000000000000000000000000000000000000000000000000000000081526004016103c79061083c565b60405180910390fd5b600360009054906101000a900473ffffffffffffffffffffffffffffffffffffffff1673ffffffffffffffffffffffffffffffffffffffff163373ffffffffffffffffffffffffffffffffffffffff1614610460576040517f08c379a000000000000000000000000000000000000000000000000000000000815260040161045790610a2e565b60405180910390fd5b6001600560006101000a81548160ff021916908315150217905550816004819055505050565b600560009054906101000a900460ff166104d5576040517f08c379a00000000000000000000000000000000000000000000000000000000081526004016104cc90610a9a565b60405180910390fd5b60008060003373ffffffffffffffffffffffffffffffffffffffff1673ffffffffffffffffffffffffffffffffffffffff168152602001908152602001600020600060045481526020019081526020016000205403610569576040517f08c379a000000000000000000000000000000000000000000000000000000000815260040161056090610b2c565b60405180910390fd5b61057233610669565b60008060003373ffffffffffffffffffffffffffffffffffffffff1673ffffffffffffffffffffffffffffffffffffffff1681526020019081526020016000206000600454815260200190815260200160002054905060008060003373ffffffffffffffffffffffffffffffffffffffff1673ffffffffffffffffffffffffffffffffffffffff16815260200190815260200160002060006004548152602001908152602001600020819055503373ffffffffffffffffffffffffffffffffffffffff166108fc829081150290604051600060405180830381858888f19350505050158015610665573d6000803e3d6000fd5b5050565b600160006004548152602001908152602001600020546006546000808473ffffffffffffffffffffffffffffffffffffffff1673ffffffffffffffffffffffffffffffffffffffff16815260200190815260200160002060006004548152602001908152602001600020546106de9190610b4c565b6106e89190610bd5565b6000808373ffffffffffffffffffffffffffffffffffffffff1673ffffffffffffffffffffffffffffffffffffffff168152602001908152602001600020600060045481526020019081526020016000208190555050565b600080fd5b6000819050919050565b61075881610745565b811461076357600080fd5b50565b6000813590506107758161074f565b92915050565b60006020828403121561079157610790610740565b5b600061079f84828501610766565b91505092915050565b600060ff82169050919050565b6107be816107a8565b82525050565b60006020820190506107d960008301846107b5565b92915050565b600082825260208201905092915050565b7f4e6f7420612076616c696420626574206974656d000000000000000000000000600082015250565b60006108266014836107df565b9150610831826107f0565b602082019050919050565b6000602082019050818103600083015261085581610819565b9050919050565b7f526f756e6420697320646f6e6500000000000000000000000000000000000000600082015250565b6000610892600d836107df565b915061089d8261085c565b602082019050919050565b600060208201905081810360008301526108c181610885565b9050919050565b7f43616e206f6e6c7920626574206f6e6365206e6f7420616761696e0000000000600082015250565b60006108fe601b836107df565b9150610909826108c8565b602082019050919050565b6000602082019050818103600083015261092d816108f1565b9050919050565b7f4e487b7100000000000000000000000000000000000000000000000000000000600052601160045260246000fd5b600061096e82610745565b915061097983610745565b9250827fffffffffffffffffffffffffffffffffffffffffffffffffffffffffffffffff038211156109ae576109ad610934565b5b828201905092915050565b60006109c4826107a8565b915060ff82036109d7576109d6610934565b5b600182019050919050565b7f596f7520617265206e6f7420746865206f776e65722100000000000000000000600082015250565b6000610a186016836107df565b9150610a23826109e2565b602082019050919050565b60006020820190508181036000830152610a4781610a0b565b9050919050565b7f526f756e64206973207374696c6c20696e2070726f6772657373000000000000600082015250565b6000610a84601a836107df565b9150610a8f82610a4e565b602082019050919050565b60006020820190508181036000830152610ab381610a77565b9050919050565b7f596f7520646964276e742077696e20616e797468696e672c206265747465722060008201527f6c75636b206e6578742074696d65000000000000000000000000000000000000602082015250565b6000610b16602e836107df565b9150610b2182610aba565b604082019050919050565b60006020820190508181036000830152610b4581610b09565b9050919050565b6000610b5782610745565b9150610b6283610745565b9250817fffffffffffffffffffffffffffffffffffffffffffffffffffffffffffffffff0483118215151615610b9b57610b9a610934565b5b828202905092915050565b7f4e487b7100000000000000000000000000000000000000000000000000000000600052601260045260246000fd5b6000610be082610745565b9150610beb83610745565b925082610bfb57610bfa610ba6565b5b82820490509291505056fea26469706673582212201f03c1117769334d32bb833c912066f3f2c70563e062c1b8f50f2c648a6960c364736f6c634300080e0033",
  "immutableReferences": {},
  "source": "// SPDX-License-Identifier: MIT\r\npragma solidity ^0.8.7;\r\n\r\ncontract Bet{\r\n    mapping(address => mapping(uint => uint)) bets;\r\n    mapping(uint => uint) totalEach;\r\n    address[] add;\r\n\r\n    address owner;\r\n    uint winner;\r\n    bool roundDone;\r\n    uint total;\r\n    uint maxTeams=2;\r\n\r\n    constructor(){\r\n        owner=msg.sender;\r\n    }\r\n\r\n    modifier numberOfTeams(uint t){\r\n        require(t < maxTeams, 'Not a valid bet item');\r\n        _;\r\n    }\r\n\r\n    function placeBet(uint t) payable numberOfTeams(t) external{\r\n        require(!roundDone, 'Round is done');\r\n        require(bets[msg.sender][t] == 0, 'Can only bet once not again');\r\n\r\n        uint b=msg.value;\r\n        bets[msg.sender][t] =  b;\r\n        add.push(msg.sender);\r\n        total+=b;\r\n        totalEach[t]+=b;\r\n    }\r\n\r\n    function myBets() external view returns(uint8){\r\n        for(uint8 i=0;i<maxTeams;i++){\r\n            if(bets[msg.sender][i]!=0) return i;\r\n        }\r\n        return uint8(maxTeams);\r\n    }\r\n\r\n    function distribute() external{\r\n        require(roundDone, 'Round is still in progress');\r\n        require(bets[msg.sender][winner] != 0, 'You did\\'nt win anything, better luck next time');\r\n        calculate(msg.sender);\r\n        uint give=bets[msg.sender][winner];\r\n\t    bets[msg.sender][winner]=0;\r\n        payable(msg.sender).transfer(give);\r\n    }\r\n\r\n    function calculate(address a) internal{\r\n        bets[a][winner]=bets[a][winner]*total/totalEach[winner];\r\n    }\r\n\r\n    function winningBet(uint g) numberOfTeams(g) external{\r\n        require(msg.sender==owner, 'You are not the owner!');\r\n        roundDone=true;\r\n        winner=g;\r\n    }\r\n}\r\n\r\n/*\r\n\r\n    function getPrize() internal pure returns(string memory){\r\n        return 'Winner declared go get prize!';\r\n    }\r\n*/\r\n",
  "sourcePath": "/home/linux/Documents/Blockchain/contracts/server.sol",
  "compiler": {
    "name": "solc",
    "version": "0.8.14+commit.80d49f37.Emscripten.clang"
  },
  "schemaVersion": "3.4.7",
  "updatedAt": "2022-07-24T08:16:09.466Z",
  "networkType": "ethereum",
  "devdoc": {
    "kind": "dev",
    "methods": {},
    "version": 1
  },
  "userdoc": {
    "kind": "user",
    "methods": {},
    "version": 1
  }
}